DIMOB                                                                                                                                                                                                                                                                                                                                                                                 
R011102236400019920230000000000002004202300FOXTER CONSULTORIA IMOBILIARIA LTDA                         00441299040AVENIDA DOUTOR NILO PECANHA  CEP 91330-000                                                                              RS8801                              
R041102236400019920230000001158788070   BIANCA CAMBRAIA FLORES                                      29601010068   MARIA DE LOURDES MILANO HESPANHOL                           5644  020120230000000790000000000000208560UAVENIDA IPIRANGA 3427 1007 BLOCO B PARTENON                 906100018801                    RS          
R041102236400019920230000101158788070   BIANCA CAMBRAIA FLORES                                      29508487020   PAULO ROBERTO GERHARDT HESPANHOL                            5644  020120230000000790000000000000208560UAVENIDA IPIRANGA 3427 1007 BLOCO B PARTENON                 906100018801                    RS          
R041102236400019920230000224785180072   LUCIA CAMINI                                                08618973823   OTAVIO JOSE FURTADO MOURA NEVES                             5646  040120230000002888200000000000682000URUA DOMINGOS CRESCENCIO 185 501 BOX 75 SANTANA              906500908801                    RS          
R041102236400019920230000324785180072   LUCIA CAMINI                                                07459382809   SHEILA TERESA CARMONA SIMOES                                5646  040120230000002888200000000000682000URUA DOMINGOS CRESCENCIO 185 501 BOX 75 SANTANA              906500908801                    RS          
R041102236400019920230000492880525004   FERNANDA BEAL PACHECO OHLWEILER                             44998740091   DENISE SEVERO DOS SANTOS                                    5647  030120230000007125000000000001338750UAVENIDA LUIZ MANOEL GONZAGA 915 CASA 03 TRES FIGUEIRAS      904702808801                    RS          
R041102236400019920230000596604891020   CASSIANO MORASSUTTI OHLWEILER                               44998740091   DENISE SEVERO DOS SANTOS                                    5647  030120230000007125000000000001338750UAVENIDA LUIZ MANOEL GONZAGA 915 CASA 03 TRES FIGUEIRAS      904702808801                    RS          
R041102236400019920230000692880525004   FERNANDA BEAL PACHECO OHLWEILER                             80631665900   GLAUCO SAMUEL CHAGAS                                        5647  030120230000007125000000000001338750UAVENIDA LUIZ MANOEL GONZAGA 915 CASA 03 TRES FIGUEIRAS      904702808801                    RS          
R041102236400019920230000796604891020   CASSIANO MORASSUTTI OHLWEILER                               80631665900   GLAUCO SAMUEL CHAGAS                                        5647  030120230000007125000000000001338750UAVENIDA LUIZ MANOEL GONZAGA 915 CASA 03 TRES FIGUEIRAS      904702808801                    RS          
R041102236400019920230000847992875087   MARCELO BORTOLINI                                           52502880068   LUCIANO WEBER SCHEEREN                                      5658  090120230000007400000000000001600000URUA DOUTOR ALCIDES CRUZ 80 702 BOX 39 E 51 SANTA CECILIA    906301608801                    RS          
R041102236400019920230000901753948061   KAUE AVILA PETRY                                            01234899035   GUSTAVO BAHMED                                              5660  090120230000002603900000000000539000URUA MARCELO GAMA 1147 201 BOX 24 AUXILIADORA                905400418801                    RS          
R041102236400019920230001002096630061   ANDRESSA SANTOS MICHEL                                      01234899035   GUSTAVO BAHMED                                              5660  090120230000002603900000000000539000URUA MARCELO GAMA 1147 201 BOX 24 AUXILIADORA                905400418801                    RS          
R041102236400019920230001101753948061   KAUE AVILA PETRY                                            01577909089   LIVIA GRASIELA VIEIRA                                       5660  090120230000002603900000000000539000URUA MARCELO GAMA 1147 201 BOX 24 AUXILIADORA                905400418801                    RS          
R041102236400019920230001202096630061   ANDRESSA SANTOS MICHEL                                      01577909089   LIVIA GRASIELA VIEIRA                                       5660  090120230000002603900000000000539000URUA MARCELO GAMA 1147 201 BOX 24 AUXILIADORA                905400418801                    RS          
R041102236400019920230001302361903008   ANA EMILIA DE MELLO MOREIRA AMARAL                          34225520000114A7 CONSULTORIA E GESTAO PATRIMONIAL                         5661  110120230000008100000000000002181600UAVENIDA ENCANTADO 99 501 BOX 03 E 04 PETROPOLIS             904704208801                    RS          
R041102236400019920230001490913680044   FABIANE SILVEIRA DA SILVA                                   01014296064   LUCIANE BONES OSTROWSKI                                     5662  110120230000003500000000000000924000URUA CORONEL APARICIO BORGES 1123 206 TORRE A BOX 36 GLORIA  906805708801                    RS          
R041102236400019920230001541657365034   ROSANE DAHMER                                               45082090097   CARLOS HENRIQUE SANTOS OLIVEIRA                             5663  100120230000000526325000000000115830URUA VISCONDE DO HERVAL 499 603 MENINO DEUS                  901301518801                    RS          
R041102236400019920230001641657365034   ROSANE DAHMER                                               07050814784   JULIO CESAR SANTOS OLIVEIRA                                 5663  100120230000000526325000000000115830URUA VISCONDE DO HERVAL 499 603 MENINO DEUS                  901301518801                    RS          
R041102236400019920230001741657365034   ROSANE DAHMER                                               08902178072   MARLY DOS SANTOS MARTINS                                    5663  100120230000000526325000000000115830URUA VISCONDE DO HERVAL 499 603 MENINO DEUS                  901301518801                    RS          
R041102236400019920230001841657365034   ROSANE DAHMER                                               39425797072   NOLCI PAULO BAPTISTA DOS SANTOS                             5663  100120230000000526325000000000115830URUA VISCONDE DO HERVAL 499 603 MENINO DEUS                  901301518801                    RS          
R041102236400019920230001941657365034   ROSANE DAHMER                                               41067991034   PATRICIA DOS SANTOS LOPES                                   5663  100120230000000526325000000000115830URUA VISCONDE DO HERVAL 499 603 MENINO DEUS                  901301518801                    RS          
R041102236400019920230002041657365034   ROSANE DAHMER                                               29448409087   PEDRO PAULO SANTOS OLIVEIRA                                 5663  100120230000000526325000000000115830URUA VISCONDE DO HERVAL 499 603 MENINO DEUS                  901301518801                    RS          
R041102236400019920230002141657365034   ROSANE DAHMER                                               51465140034   ROBERTO CARLOS SANTOS OLIVEIRA                              5663  100120230000000526325000000000115830URUA VISCONDE DO HERVAL 499 603 MENINO DEUS                  901301518801                    RS          
R041102236400019920230002241657365034   ROSANE DAHMER                                               41508114072   VERA LUCIA SANTOS OLIVEIRA                                  5663  100120230000000526325000000000115830URUA VISCONDE DO HERVAL 499 603 MENINO DEUS                  901301518801                    RS          
R041102236400019920230002342145465049   MARCOS KRZISCH                                              26252961000   MARIA ELCIRA REIF PERETTO                                   5664  120120230000000950000000000000250800URUA CORONEL FEIJO 1100 203 SAO JOAO                         905200608801                    RS          
R041102236400019920230002444928220030   DENISE WIEDERSPAHN FRANKE                                   26252961000   MARIA ELCIRA REIF PERETTO                                   5664  120120230000000950000000000000250800URUA CORONEL FEIJO 1100 203 SAO JOAO                         905200608801                    RS          
R041102236400019920230002585365670078   CAMILA KRZISCH                                              26252961000   MARIA ELCIRA REIF PERETTO                                   5664  120120230000000019000000000000005016URUA CORONEL FEIJO 1100 203 SAO JOAO                         905200608801                    RS          
R041102236400019920230002642145465049   MARCOS KRZISCH                                              19986548004   RICARDO BARTH PERETTO                                       5664  120120230000000950000000000000250800URUA CORONEL FEIJO 1100 203 SAO JOAO                         905200608801                    RS          
R041102236400019920230002744928220030   DENISE WIEDERSPAHN FRANKE                                   19986548004   RICARDO BARTH PERETTO                                       5664  120120230000000950000000000000250800URUA CORONEL FEIJO 1100 203 SAO JOAO                         905200608801                    RS          
R041102236400019920230002885365670078   CAMILA KRZISCH                                              19986548004   RICARDO BARTH PERETTO                                       5664  120120230000000019000000000000005016URUA CORONEL FEIJO 1100 203 SAO JOAO                         905200608801                    RS          
R041102236400019920230002900433516038   MARJAC GHILARDI CABRAL                                      43563708053   JOAO EMILIO ROEHE NETO                                      5665  130120230000002533408000000000600195URUA BARAO DE UBA 162 402 BOX 15 BELA VISTA                  904500908801                    RS          
R041102236400019920230003082135584053   TIAGO MACHADO                                               43563708053   JOAO EMILIO ROEHE NETO                                      5665  130120230000002533408000000000600195URUA BARAO DE UBA 162 402 BOX 15 BELA VISTA                  904500908801                    RS          
R041102236400019920230003118464734034   ELIZABETH JANETE LOPES                                      41237404053   OSVALDO GOULART CANQUERINI                                  5667  060120230000004850000000000001164000URUA ROQUE CALAGE 886 806 BOX 39 PASSO DA AREIA              913500908801                    RS          
R041102236400019920230003218464734034   ELIZABETH JANETE LOPES                                      49803573004   RITA DE CASSIA CRAMER MEYER                                 5667  060120230000004850000000000001164000URUA ROQUE CALAGE 886 806 BOX 39 PASSO DA AREIA              913500908801                    RS          
R041102236400019920230003346500812034   VANDERLEI VARGAS MARQUES                                    08029323000110VANGUARD HOME EMPREENDIMENTOS IMOBILIARIOS LTDA             5668  110120230000004996470000000001259700URUA EMILIO MULLER 55 705 TORRE 2 BOX DUPLO 31 JARDIM LINDOIA910503278801                    RS          
R041102236400019920230003471146539053   FABRICIA PEDEBOS MEIRELES                                   08029323000110VANGUARD HOME EMPREENDIMENTOS IMOBILIARIOS LTDA             5668  110120230000004996470000000001259700URUA EMILIO MULLER 55 705 TORRE 2 BOX DUPLO 31 JARDIM LINDOIA910503278801                    RS          
R041102236400019920230003533944312899   RAPHAEL LARA EMERICK RIBEIRO                                66345871087   CAMILA CASTILHOS DA COSTA                                   5669  130120230000002962500000000000383500URUA JARI 359 702 TORRE B BOX 20 PASSO DA AREIA              913501708801                    RS          
R041102236400019920230003638003769892   FERNANDA LAGHI CREDIDIO EMERICK                             66345871087   CAMILA CASTILHOS DA COSTA                                   5669  130120230000002962500000000000383500URUA JARI 359 702 TORRE B BOX 20 PASSO DA AREIA              913501708801                    RS          
R041102236400019920230003733944312899   RAPHAEL LARA EMERICK RIBEIRO                                69572283049   MARCEL FABIAN DUARTE PINHEIRO                               5669  130120230000002962500000000000383500URUA JARI 359 702 TORRE B BOX 20 PASSO DA AREIA              913501708801                    RS          
R041102236400019920230003838003769892   FERNANDA LAGHI CREDIDIO EMERICK                             69572283049   MARCEL FABIAN DUARTE PINHEIRO                               5669  130120230000002962500000000000383500URUA JARI 359 702 TORRE B BOX 20 PASSO DA AREIA              913501708801                    RS          
R041102236400019920230003901905887051   BRUNA STEPHANIE MIRANDA DOS SANTOS                          80793843049   NADIA REGINA MARCON                                         5670  130120230000000838300000000000370500UAVENIDA OSVALDO ARANHA 806 08 DEPOSITO H BOM FIM            900351918801                    RS          
R041102236400019920230004001905887051   BRUNA STEPHANIE MIRANDA DOS SANTOS                          56195028053   ROBERTO SANTOS MENDES                                       5670  130120230000000838300000000000370500UAVENIDA OSVALDO ARANHA 806 08 DEPOSITO H BOM FIM            900351918801                    RS          
R041102236400019920230004185844756053   PAULA DA SILVA NOVAES                                       83507639068   LUANA HOMEM BELOMO                                          5671  140120230000000725000000000000243600URUA PADRE JOAO BATISTA REUS 3347 209 BLOCO ILHA DAS POMBAS C919200018801                    RS          
R041102236400019920230004285844756053   PAULA DA SILVA NOVAES                                       69028079220   MARCELO AZAMBUJA DIAS                                       5671  140120230000000725000000000000243600URUA PADRE JOAO BATISTA REUS 3347 209 BLOCO ILHA DAS POMBAS C919200018801                    RS          
R041102236400019920230004302346988022   RODRIGO SOUZA BERNARDES                                     90284577049   HULDO COLARES CONY                                          5672  060120230000000800000000000000211200UAVENIDA BORGES DE MEDEIROS 652 405 CENTRO HISTORICO         900200228801                    RS          
R041102236400019920230004402346988022   RODRIGO SOUZA BERNARDES                                     98674919049   PATRICIA COLARES CONY                                       5672  060120230000000800000000000000211200UAVENIDA BORGES DE MEDEIROS 652 405 CENTRO HISTORICO         900200228801                    RS          
R041102236400019920230004539558924091   ROSANGELA FLORES TERRA                                      71929959087   SANDRO MARCELO PREZZI                                       5673  090120230000001083500000000000275000URUA DONA LEONOR 154 19  BOX 26 RIO BRANCO                   904201808801                    RS          
R041102236400019920230004643017371034   MARIANGELA FLORES TERRA SANTIAGO                            71929959087   SANDRO MARCELO PREZZI                                       5673  090120230000001083500000000000275000URUA DONA LEONOR 154 19  BOX 26 RIO BRANCO                   904201808801                    RS          
R041102236400019920230004743907342020   SIMONE FLORES TERRA                                         71929959087   SANDRO MARCELO PREZZI                                       5673  090120230000001083500000000000275000URUA DONA LEONOR 154 19  BOX 26 RIO BRANCO                   904201808801                    RS          
R041102236400019920230004867357792072   KATIA FLORES TERRA                                          71929959087   SANDRO MARCELO PREZZI                                       5673  090120230000001083500000000000275000URUA DONA LEONOR 154 19  BOX 26 RIO BRANCO                   904201808801                    RS          
R041102236400019920230004975943778004   EVERALDO SANTOS MACHADO                                     39461661053   DIORGENES PICKRODT                                          5676  130120230000001760000000000000464640URUA ARABUTAN 179 NAVEGANTES                                 902404708801                    RS          
R041102236400019920230005075943778004   EVERALDO SANTOS MACHADO                                     62633848087   MAGALI TERESINHA PORTO PIRES                                5676  130120230000001760000000000000464640URUA ARABUTAN 179 NAVEGANTES                                 902404708801                    RS          
R041102236400019920230005124424994520   MARIVALDA CANDIDA PEREIRA                                   95517162053   TIAGO DALL AGNOL                                            5678  130120230000003250000000000000858000URUA MARCILIO DIAS 978 305 MENINO DEUS                       901300008801                    RS          
R041102236400019920230005267589898015   DELIA DEL PILAR MONTECINOS DE ALMEIDA                       63346486087   ELIZANGELA ANTUNES CARVALHO CAMARGO                         5679  160120230000008900000000000002136000UAVENIDA BORGES DE MEDEIROS 3200 804 BOX 30 PRAIA DE BELAS   901101508801                    RS          
R041102236400019920230005360725176091   GESSI GIACOMELLI                                            76412130063   OYARA CRISTINA DE MOURA KOHLRAUCHS                          5680  140120230000001215000000000000275000URUA MARCILIO DIAS 734 107 BLOCO B MENINO DEUS               901300018801                    RS          
R041102236400019920230005440500357072   MARTA ISLAINE PEREIRA VIEIRA                                47722401015   DORIS RODRIGUES WEISS                                       5681  160120230000004000000000000001008000UAVENIDA FARIA LOBATO 1120 102 SARANDI                       911104608801                    RS          
R041102236400019920230005503038376086   JADE CRISTINE TOSCHI DO AMARAL                              80576230049   FABIO SILVA DA ROSA                                         5682  100120230000000035000000000000021000URUA EVANGELISTA 155 LOTE 08 QUADRA 21 RESTINGA              917903408801                    RS          
R041102236400019920230005603038376086   JADE CRISTINE TOSCHI DO AMARAL                              78464811004   VANDA TERESINHA LOPES JARDIM DA ROSA                        5682  100120230000000035000000000000021000URUA EVANGELISTA 155 LOTE 08 QUADRA 21 RESTINGA              917903408801                    RS          
R041102236400019920230005759273879004   ROSANGELA DALL ACQUA                                        00305958003   LARISSA SABBADO FLORES                                      5683  150120230000002030000000000000420992URUA ATANASIO BELMONTE 450 303 BOX 19 BOA VISTA              905205508801                    RS          
R041102236400019920230005859273879004   ROSANGELA DALL ACQUA                                        95544950059   PABLO DRESCHER DE CASTRO                                    5683  150120230000002030000000000000420992URUA ATANASIO BELMONTE 450 303 BOX 19 BOA VISTA              905205508801                    RS          
R041102236400019920230005933573379087   JORGE ALBERTO PINTO                                         87139119000128EDUSA S.A. EDIFICACOES URBANAS                              5684  180120230000002150000000000000473000UAVENIDA TERESOPOLIS 2255 706 TORRE II BOX 107 TERESOPOLIS   908700008801                    RS          
R041102236400019920230006001960558064   GUILHERME ALEXANDRE GOVEIA                                  06264964034   MARLENE STORCH KEISERMAN                                    5685  160120230000000800000000000000268800URUA FELIPE CAMARAO 319 202 RIO BRANCO                       900351418801                    RS          
R041102236400019920230006101960558064   GUILHERME ALEXANDRE GOVEIA                                  11229330020   MAURO WALDEMAR KEISERMAN                                    5685  160120230000000800000000000000268800URUA FELIPE CAMARAO 319 202 RIO BRANCO                       900351418801                    RS          
R041102236400019920230006257750920072   ANA LERIDA PACHECO GUTIERREZ                                26159341049   VERA LUCIA ZANETTE                                          5686  180120230000001200000000000000316800URUA CORONEL JOAO CORREA 60 414 BLOCO D BOX 17 PASSO DA AREIA913501908801                    RS          
R041102236400019920230006390774272015   CLAUDIO ROGERIO DE MACEDO                                   26159341049   VERA LUCIA ZANETTE                                          5686  180120230000001200000000000000316800URUA CORONEL JOAO CORREA 60 414 BLOCO D BOX 17 PASSO DA AREIA913501908801                    RS          
R041102236400019920230006400929395034   LUIZ CARLOS BARCELOS RODRIGUES                              01605508071   SABRINA CHAPUIS DE ANDRADE                                  5687  170120230000003550000000000000732240URUA DESEMBARGADOR ALVES NOGUEIRA 55 302 BOX 07 PETROPOLIS   904701108801                    RS          
R041102236400019920230006526960664004   CARMEN MARIA DA SILVEIRA RODRIGUES                          01605508071   SABRINA CHAPUIS DE ANDRADE                                  5687  170120230000003550000000000000732240URUA DESEMBARGADOR ALVES NOGUEIRA 55 302 BOX 07 PETROPOLIS   904701108801                    RS          
R041102236400019920230006601509996079   JESSICA TEIXEIRA GRUNHAUSER                                 81048211053   CHRISTIANO HUBER NETO                                       5688  190120230000003600000000000000950400URUA GRALHA AZUL 555 178 ACESSO 4 JARDIM CARVALHO            914308358801                    RS          
R041102236400019920230006781422393020   RAFAEL RANGEL LUCEIRO                                       81048211053   CHRISTIANO HUBER NETO                                       5688  190120230000003600000000000000950400URUA GRALHA AZUL 555 178 ACESSO 4 JARDIM CARVALHO            914308358801                    RS          
R041102236400019920230006801509996079   JESSICA TEIXEIRA GRUNHAUSER                                 00486661067   VANESSA TEREZINHA LIZOT                                     5688  190120230000003600000000000000950400URUA GRALHA AZUL 555 178 ACESSO 4 JARDIM CARVALHO            914308358801                    RS          
R041102236400019920230006981422393020   RAFAEL RANGEL LUCEIRO                                       00486661067   VANESSA TEREZINHA LIZOT                                     5688  190120230000003600000000000000950400URUA GRALHA AZUL 555 178 ACESSO 4 JARDIM CARVALHO            914308358801                    RS          
R041102236400019920230007023261269049   CARLOS TADEU PONTALTI                                       33469580006   DENISE DE CASTRO OLIVEIRA                                   5689  170120230000001667000000000000366740URUA DUQUE DE CAXIAS 1208 802 BOX 21 CENTRO HISTORICO        900102818801                    RS          
R041102236400019920230007151780682034   SANDRA FATIMA BENATO PONTALTI                               33469580006   DENISE DE CASTRO OLIVEIRA                                   5689  170120230000001667000000000000366740URUA DUQUE DE CAXIAS 1208 802 BOX 21 CENTRO HISTORICO        900102818801                    RS          
R041102236400019920230007223261269049   CARLOS TADEU PONTALTI                                       21035490072   JANE KRUSE DE CASTRO OLIVEIRA                               5689  170120230000000832500000000000183150URUA DUQUE DE CAXIAS 1208 802 BOX 21 CENTRO HISTORICO        900102818801                    RS          
R041102236400019920230007351780682034   SANDRA FATIMA BENATO PONTALTI                               21035490072   JANE KRUSE DE CASTRO OLIVEIRA                               5689  170120230000000832500000000000183150URUA DUQUE DE CAXIAS 1208 802 BOX 21 CENTRO HISTORICO        900102818801                    RS          
R041102236400019920230007423261269049   CARLOS TADEU PONTALTI                                       33500207049   ROBERTO DE CASTRO OLIVEIRA                                  5689  170120230000001667500000000000366850URUA DUQUE DE CAXIAS 1208 802 BOX 21 CENTRO HISTORICO        900102818801                    RS          
R041102236400019920230007551780682034   SANDRA FATIMA BENATO PONTALTI                               33500207049   ROBERTO DE CASTRO OLIVEIRA                                  5689  170120230000001667500000000000366850URUA DUQUE DE CAXIAS 1208 802 BOX 21 CENTRO HISTORICO        900102818801                    RS          
R041102236400019920230007623261269049   CARLOS TADEU PONTALTI                                       22482792053   ROGERIO DE CASTRO OLIVEIRA                                  5689  170120230000000833000000000000183260URUA DUQUE DE CAXIAS 1208 802 BOX 21 CENTRO HISTORICO        900102818801                    RS          
R041102236400019920230007751780682034   SANDRA FATIMA BENATO PONTALTI                               22482792053   ROGERIO DE CASTRO OLIVEIRA                                  5689  170120230000000833000000000000183260URUA DUQUE DE CAXIAS 1208 802 BOX 21 CENTRO HISTORICO        900102818801                    RS          
R041102236400019920230007805674930082   CARLOS HORACIO HERZ GENRO                                   62162373068   CECILIA GANDOLFI COMPAGNONI                                 5690  180120230000005500000000000001452000UAVENIDA CRISTOVAO COLOMBO 2614 FLORESTA                     905600028801                    RS          
R041102236400019920230007939473864000   SIMONE BRANDELLI GENRO                                      62162373068   CECILIA GANDOLFI COMPAGNONI                                 5690  180120230000005500000000000001452000UAVENIDA CRISTOVAO COLOMBO 2614 FLORESTA                     905600028801                    RS          
R041102236400019920230008000693986077   CRISTIANO SILVEIRA BASSO                                    39136256072   MARLISE REGINA MEYRER                                       5691  160120230000003575000000000000943800URUA RIVEIRA 281 504 BOX 20 PETROPOLIS                       906701608801                    RS          
R041102236400019920230008100693986077   CRISTIANO SILVEIRA BASSO                                    36114499034   NEY TRAVI MEYRER                                            5691  160120230000003575000000000000943800URUA RIVEIRA 281 504 BOX 20 PETROPOLIS                       906701608801                    RS          
R041102236400019920230008202749452074   CESAR DE OLIVEIRA ZANETTE                                   37577298034   CLEOMAR ZAMBON                                              5692  240120230000001644000000000000440000URUA JERONYMO ZELMANOVITZ 100 802 BOX DUPLO 274 SAO SEBASTIAO910601358801                    RS          
R041102236400019920230008386000470053   FERNANDA MANFRON MADALENA HOYER                             37577298034   CLEOMAR ZAMBON                                              5692  240120230000001644000000000000440000URUA JERONYMO ZELMANOVITZ 100 802 BOX DUPLO 274 SAO SEBASTIAO910601358801                    RS          
R041102236400019920230008402749452074   CESAR DE OLIVEIRA ZANETTE                                   35061197020   LUIZA DORNELLES GOMES SOUTO                                 5692  240120230000001644000000000000440000URUA JERONYMO ZELMANOVITZ 100 802 BOX DUPLO 274 SAO SEBASTIAO910601358801                    RS          
R041102236400019920230008586000470053   FERNANDA MANFRON MADALENA HOYER                             35061197020   LUIZA DORNELLES GOMES SOUTO                                 5692  240120230000001644000000000000440000URUA JERONYMO ZELMANOVITZ 100 802 BOX DUPLO 274 SAO SEBASTIAO910601358801                    RS          
R041102236400019920230008652330435053   CLAUDIO TESSARI                                             49493892115   LIDIA FERNANDES DE MELLO                                    5693  200120230000003250000000000000660000UAVENIDA IPIRANGA 40 505 TORRE B PARTENON                    915300018801                    RS          
R041102236400019920230008747480874049   LUIZ FERNANDO SILVA BILIBIO                                 90265955068   ANA PAULA GUARAGNI CHIAPPETTI                               5694  130120230000001410000000000000262500URUA GENERAL LIMA E SILVA 594 508 BOX 47 CIDADE BAIXA        900501018801                    RS          
R041102236400019920230008847480874049   LUIZ FERNANDO SILVA BILIBIO                                 78541255034   RAFFAELLI DI MARCO CHIAPPETTI                               5694  130120230000001410000000000000262500URUA GENERAL LIMA E SILVA 594 508 BOX 47 CIDADE BAIXA        900501018801                    RS          
R041102236400019920230008942976227004   APOSTOLO MAXIMINO PRISCO                                    86167227004   IKER MARTIN MARTINEZ                                        5695  230120230000000850000000000000224400URUA SAO MANOEL 816 503 RIO BRANCO                           906201108801                    RS          
R041102236400019920230009061070416053   SILVIA TEREZINHA DE VARGAS PEREIRA PRISCO                   86167227004   IKER MARTIN MARTINEZ                                        5695  230120230000000850000000000000224400URUA SAO MANOEL 816 503 RIO BRANCO                           906201108801                    RS          
R041102236400019920230009142976227004   APOSTOLO MAXIMINO PRISCO                                    94005290078   KATIA BONES ROCHA                                           5695  230120230000000850000000000000224400URUA SAO MANOEL 816 503 RIO BRANCO                           906201108801                    RS          
R041102236400019920230009261070416053   SILVIA TEREZINHA DE VARGAS PEREIRA PRISCO                   94005290078   KATIA BONES ROCHA                                           5695  230120230000000850000000000000224400URUA SAO MANOEL 816 503 RIO BRANCO                           906201108801                    RS          
R041102236400019920230009301804003042   JOCASTA DILLMANN MOREIRA                                    06264964034   MARLENE STORCH KEISERMAN                                    5696  230120230000000790000000000000212800URUA FELIPE CAMARAO 319 206 RIO BRANCO                       900351418801                    RS          
R041102236400019920230009401804003042   JOCASTA DILLMANN MOREIRA                                    11229330020   MAURO WALDEMAR KEISERMAN                                    5696  230120230000000790000000000000212800URUA FELIPE CAMARAO 319 206 RIO BRANCO                       900351418801                    RS          
R041102236400019920230009502229996088   GUILHERME MATOS DE ANDRADES                                 36413844000   LUIS ALBERTO SANTOS DA COSTA                                5697  240120230000000742500000000000196020URUA FELIZARDO 300 301 JARDIM BOTANICO                       906902008801                    RS          
R041102236400019920230009603058051000   GIOVANA CASA                                                36413844000   LUIS ALBERTO SANTOS DA COSTA                                5697  240120230000000742500000000000196020URUA FELIZARDO 300 301 JARDIM BOTANICO                       906902008801                    RS          
R041102236400019920230009702229996088   GUILHERME MATOS DE ANDRADES                                 38196565020   MARIA INES FUHR BERNARDES                                   5697  240120230000000742500000000000196020URUA FELIZARDO 300 301 JARDIM BOTANICO                       906902008801                    RS          
R041102236400019920230009803058051000   GIOVANA CASA                                                38196565020   MARIA INES FUHR BERNARDES                                   5697  240120230000000742500000000000196020URUA FELIZARDO 300 301 JARDIM BOTANICO                       906902008801                    RS          
R041102236400019920230009938728834020   EDSON RAMOS CARDOSO                                         94298270068   FELIPE BRAGA ROSA                                           5698  130120230000002250000000000000484000URUA DARIO TOTTA 514 305 BLOCO A BOX 01 TERESOPOLIS          908402908801                    RS          
R041102236400019920230010095536345087   JULIANA GRACIANO NICOLAIT                                   62556657049   JOSEANE LEONARDI CRAVEIRO EL HAWAT                          5699  250120230000001304640000000000356400URUA CIPO 730 120 BOX 51 PASSO DA AREIA                      913603708801                    RS          
R041102236400019920230010195536345087   JULIANA GRACIANO NICOLAIT                                   92050344015   YOUSSEF EL HAWAT                                            5699  250120230000001304640000000000356400URUA CIPO 730 120 BOX 51 PASSO DA AREIA                      913603708801                    RS          
R041102236400019920230010221304971015   VINICIUS CARVALHO TODESCHINI                                62724495004   GLADIS ELISE PEREIRA DA SILVA KAERCHER                      5700  190120230000001065000000000000281160UPRACA PIRATINI 131 404 BOX 15 SANTANA                       900401708801                    RS          
R041102236400019920230010343005535053   DENISE LOUREIRO PEDROSO                                     62724495004   GLADIS ELISE PEREIRA DA SILVA KAERCHER                      5700  190120230000001065000000000000281160UPRACA PIRATINI 131 404 BOX 15 SANTANA                       900401708801                    RS          
R041102236400019920230010421304971015   VINICIUS CARVALHO TODESCHINI                                43269664087   NESTOR ANDRE KAERCHER                                       5700  190120230000001065000000000000281160UPRACA PIRATINI 131 404 BOX 15 SANTANA                       900401708801                    RS          
R041102236400019920230010543005535053   DENISE LOUREIRO PEDROSO                                     43269664087   NESTOR ANDRE KAERCHER                                       5700  190120230000001065000000000000281160UPRACA PIRATINI 131 404 BOX 15 SANTANA                       900401708801                    RS          
R041102236400019920230010644083050063   DENYSE LARANJA SILVEIRA                                     90699998034   GISLEY ROSARIO VASCONCELLOS BAVARESCO                       5701  250120230000003675000000000000870000UAVENIDA PADRE CACIQUE 1860 24 PRAIA DE BELAS                908102408801                    RS          
R041102236400019920230010749050109004   DEYSE LARANJA SILVEIRA                                      90699998034   GISLEY ROSARIO VASCONCELLOS BAVARESCO                       5701  250120230000003675000000000000870000UAVENIDA PADRE CACIQUE 1860 24 PRAIA DE BELAS                908102408801                    RS          
R041102236400019920230010844083050063   DENYSE LARANJA SILVEIRA                                     13366904020   SERGIO GOLDEMIR BAVARESCO                                   5701  250120230000003675000000000000870000UAVENIDA PADRE CACIQUE 1860 24 PRAIA DE BELAS                908102408801                    RS          
R041102236400019920230010949050109004   DEYSE LARANJA SILVEIRA                                      13366904020   SERGIO GOLDEMIR BAVARESCO                                   5701  250120230000003675000000000000870000UAVENIDA PADRE CACIQUE 1860 24 PRAIA DE BELAS                908102408801                    RS          
R041102236400019920230011061274062691   FRANCISCO EDUARDO MIRANDA DE OLIVEIRA                       94479879072   ARTUR PUGLIA SANTINI WEISS                                  5702  240120230000003725000000000000625800URUA PADRE ALOIS KADES 231 VILA IPIRANGA                     913601708801                    RS          
R041102236400019920230011175149338915   JANETE MARQUARDT DE OLIVEIRA                                94479879072   ARTUR PUGLIA SANTINI WEISS                                  5702  240120230000003725000000000000625800URUA PADRE ALOIS KADES 231 VILA IPIRANGA                     913601708801                    RS          
R041102236400019920230011261274062691   FRANCISCO EDUARDO MIRANDA DE OLIVEIRA                       93859201034   NADIA SANTINI WEISS                                         5702  240120230000003725000000000000625800URUA PADRE ALOIS KADES 231 VILA IPIRANGA                     913601708801                    RS          
R041102236400019920230011375149338915   JANETE MARQUARDT DE OLIVEIRA                                93859201034   NADIA SANTINI WEISS                                         5702  240120230000003725000000000000625800URUA PADRE ALOIS KADES 231 VILA IPIRANGA                     913601708801                    RS          
R041102236400019920230011401398344001   LUCIANA GOMES COMBERLATO                                    15368618000186PORTO5 INVESTIMENTOS IMOBILIARIOS S.A                       5704  260120230000003088118000000000868780URUA TENENTE ARY TARRAGO 2575 1708 TORRE A BOX 42 JARDIM ITU 912250018801                    RS          
R041102236400019920230011582579148000   VINICIUS STRACK                                             40436756072   LUCIO MENANDRO LEAL MEDEIROS                                5705  260120230000001970000000000000528000URUA CORONEL FEIJO 394 204 SAO JOAO                          905200608801                    RS          
R041102236400019920230011641179854004   ROSANGELA PEDROTTI PICANCO                                  43525920059   YOLANDA VERA DEHNHARDT DA SILVA                             5706  200120230000000450000000000000270000URUA ARIOVALDO PINHEIRO 199 201 PASSO DA AREIA               913501208801                    RS          
R041102236400019920230011702335090038   GABRIELA FERNANDES DA ROSA DIAS                             37095722072   LUCIANITA DA SILVA                                          5707  260120230000002400000000000000528000UAVENIDA AMERICA 103 301 BOX 36 AUXILIADORA                  904400208801                    RS          
R041102236400019920230011802379808007   AIRTON DIAS DOMINGUES                                       37095722072   LUCIANITA DA SILVA                                          5707  260120230000002400000000000000528000UAVENIDA AMERICA 103 301 BOX 36 AUXILIADORA                  904400208801                    RS          
R041102236400019920230011904033246967   EDUARDO CESARIO PEREIRA                                     22246452015   CARLOS ALBERTO THORMANN FERREIRA                            5708  270120230000001500000000000000346560URUA BANCO INGLES 407 13 SANTA TEREZA                        908406008801                    RS          
R041102236400019920230012005414984956   KRISTTIAN KELLENN CARDOSO CESARIO PEREIRA                   22246452015   CARLOS ALBERTO THORMANN FERREIRA                            5708  270120230000001500000000000000346560URUA BANCO INGLES 407 13 SANTA TEREZA                        908406008801                    RS          
R041102236400019920230012170894884034   MARIA ISABEL PEREIRA NUNES NEVES                            94791694015   ABRAMO LUI DE BARROS                                        5709  270120230000000692500000000000182820URUA CORONEL FERNANDO MACHADO 797 22 CENTRO HISTORICO        900103218801                    RS          
R041102236400019920230012270895449072   ALEXANDRE NEVES                                             94791694015   ABRAMO LUI DE BARROS                                        5709  270120230000000692500000000000182820URUA CORONEL FERNANDO MACHADO 797 22 CENTRO HISTORICO        900103218801                    RS          
R041102236400019920230012370894884034   MARIA ISABEL PEREIRA NUNES NEVES                            96015659068   ALINE PEREIRA DE BARROS                                     5709  270120230000000692500000000000182820URUA CORONEL FERNANDO MACHADO 797 22 CENTRO HISTORICO        900103218801                    RS          
R041102236400019920230012470895449072   ALEXANDRE NEVES                                             96015659068   ALINE PEREIRA DE BARROS                                     5709  270120230000000692500000000000182820URUA CORONEL FERNANDO MACHADO 797 22 CENTRO HISTORICO        900103218801                    RS          
R041102236400019920230012560139730087   JOSE ALEXANDRE DE VARGAS RIGO                               51305852087   SANDRA DE SOUZA                                             5710  190120230000001200000000000000403200URUA GUILHERME ALVES 546 207 JARDIM BOTANICO                 906700348801                    RS          
R041102236400019920230012660139730087   JOSE ALEXANDRE DE VARGAS RIGO                               51305844068   SONIA DE SOUZA                                              5710  190120230000001200000000000000403200URUA GUILHERME ALVES 546 207 JARDIM BOTANICO                 906700348801                    RS          
R041102236400019920230012760353252034   LEANDRO ROBERTO OSS ZAMBON                                  34440003087   LAURA SIMONE TEIXEIRA ALVES                                 5711  240120230000001750000000000000798000UAVENIDA PROTASIO ALVES 3484 502 PETROPOLIS                  904100078801                    RS          
R041102236400019920230012801262260086   WAGNER NUNES KARAN                                          74785125004   DEJALMA MATEUS MORANDIN                                     5712  270120230000000337500000000000089100UAVENIDA JUCA BATISTA 2705 34 ACESSO 1 HIPICA                917550008801                    RS          
R041102236400019920230012901794508082   BARBARA FERRAZ SILVEIRA                                     74785125004   DEJALMA MATEUS MORANDIN                                     5712  270120230000000337500000000000089100UAVENIDA JUCA BATISTA 2705 34 ACESSO 1 HIPICA                917550008801                    RS          
R041102236400019920230013001262260086   WAGNER NUNES KARAN                                          96236388091   JANAINA LAIS PACHECO LARA MORANDIN                          5712  270120230000000337500000000000089100UAVENIDA JUCA BATISTA 2705 34 ACESSO 1 HIPICA                917550008801                    RS          
R041102236400019920230013101794508082   BARBARA FERRAZ SILVEIRA                                     96236388091   JANAINA LAIS PACHECO LARA MORANDIN                          5712  270120230000000337500000000000089100UAVENIDA JUCA BATISTA 2705 34 ACESSO 1 HIPICA                917550008801                    RS          
R041102236400019920230013241822226015   ANA PAULA TERRA MACHADO                                     03136582000126CETAM CONSTRUCOES E INCORPORACOES LTDA                      5713  300120230000014503000000000002871594URUA SANTO INACIO 222 201 BOX 07 E 08 MOINHOS DE VENTO       905701508801                    RS          
R041102236400019920230013316316720025   ROZANGELA DA GRACA MORAES DE ALMEIDA                        46063005072   ANDRE RICARDO VARGAS DA SILVA                               5714  280120230000001987500000000000524700URUA MARECHAL MESQUITA 581 124 BLOCO 04 TERESOPOLIS          917201608801                    RS          
R041102236400019920230013416316720025   ROZANGELA DA GRACA MORAES DE ALMEIDA                        56507399000   LUCIANE RODRIGUES DA SILVA                                  5714  280120230000001987500000000000524700URUA MARECHAL MESQUITA 581 124 BLOCO 04 TERESOPOLIS          917201608801                    RS          
R041102236400019920230013501930371063   RAUL CASAGRANDE BERWIAN                                     16873246034   FLAVIO BARCELOS DE CASTRO                                   5715  270120230000002750000000000000550000URUA SAPE 410 502 BLOCO A BOX 04 PASSO DA AREIA              913500508801                    RS          
R041102236400019920230013601930371063   RAUL CASAGRANDE BERWIAN                                     28259483068   REGINA BRUHN DE CASTRO                                      5715  270120230000002750000000000000550000URUA SAPE 410 502 BLOCO A BOX 04 PASSO DA AREIA              913500508801                    RS          
R041102236400019920230013769958947072   ROSANA MARIA ALMEIDA OLIVEIRA                               29928583072   LEVI ROBERTO HERPICH                                        5716  300120230000000366000000000000084180URUA GENERAL LIMA E SILVA 407 102 CIDADE BAIXA               900501018801                    RS          
R041102236400019920230013869958947072   ROSANA MARIA ALMEIDA OLIVEIRA                               24097870025   MARIA MARLISE HERPICH                                       5716  300120230000000366000000000000084180URUA GENERAL LIMA E SILVA 407 102 CIDADE BAIXA               900501018801                    RS          
R041102236400019920230013998936751034   BIANCA SORDI STOCK                                          32175159787   LUIZ FERNANDO DENARDIN                                      5717  300120230000003440000000000000616000URUA RAMIRO BARCELOS 2059 91 BLOCO A SANTANA                 900350078801                    RS          
R041102236400019920230014003431324002   JULIA SILVA FROSI                                           00426340086   CARLOS FERREIRA ODESTO MACHADO                              5718  260120230000002000000000000000528000URUA DOUTOR MALHEIROS 101 102 BOX 68 SANTO ANTONIO           906400508801                    RS          
R041102236400019920230014141207843806   WALTER TADEU MARTINS FILHO                                  72781009091   ROBINSON LUIZ FLORES                                        5719  300120230000004080000000000000979200URUA IRMAO NORBERTO FRANCISCO RAUCH 700 1311 TORRE B BOX 87 J914501478801                    RS          
R041102236400019920230014246452346091   MARCIA MENEGHEL                                             41086317068   CARLOS HENRIQUE BERTOLI GOULARTE                            5720  300120230000003900000000000000842400UAVENIDA JOAO WALLIG 857 304 BOX 23 PASSO DA AREIA           913400008801                    RS          
R041102236400019920230014321800057091   ROBERTO MACHADO DA SILVA                                    16458768000143DBM EMPREENDIMENTOS IMOBILIARIOS LTDA                       5721  300120230000008259875000000002323750URUA ARMANDO BARBEDO 505 613 TORRE 4 BOX 134 TRISTEZA        919001908801                    RS          
R041102236400019920230014436177237053   ROSANGELA CURTINAZ BARCELLOS                                16458768000143DBM EMPREENDIMENTOS IMOBILIARIOS LTDA                       5721  300120230000008259875000000002323750URUA ARMANDO BARBEDO 505 613 TORRE 4 BOX 134 TRISTEZA        919001908801                    RS          
R041102236400019920230014521800057091   ROBERTO MACHADO DA SILVA                                    16458768000143DBM EMPREENDIMENTOS IMOBILIARIOS LTDA                       5722  300120230000000293250000000000082500URUA ARMANDO BARBEDO 505 137 TRISTEZA                        919001908801                    RS          
R041102236400019920230014636177237053   ROSANGELA CURTINAZ BARCELLOS                                16458768000143DBM EMPREENDIMENTOS IMOBILIARIOS LTDA                       5722  300120230000000293250000000000082500URUA ARMANDO BARBEDO 505 137 TRISTEZA                        919001908801                    RS          
T9                                                                                                    